:100000000C947A000C949B000C949B000C949B0025
:100010000C949B000C949B000C949B000C949B00F4
:100020000C949B000C949B000C949B000C949B00E4
:100030000C949B000C949B000C949B000C949B00D4
:100040000C949B000C949B000C949B000C949B00C4
:100050000C949B000C949B000C949B000C949B00B4
:100060000C949B000C949B000C949B000C949B00A4
:100070000C949B000C949B000C949B000C949B0094
:100080000C949B000C949B000C949B000C949B0084
:100090000C949B000C949B000C949B000C949B0074
:1000A0000C949B000C949B000C949B000C949B0064
:1000B0000C949B000C949B000C949B000C949B0054
:1000C0000C949B000C949B000C949B000C949B0044
:1000D0000C949B000C949B000C949B000C949B0034
:1000E0000C949B000C94E5000C949D000C94CD00A6
:1000F0000C94B50011241FBECFEFD1E2DEBFCDBFFF
:1001000000E00CBF12E0A0E0B2E0ECE8F3E000E0B9
:100110000BBF02C007900D92A830B107D9F71AE0C3
:10012000A8E0B2E001C01D92AA30B107E1F70E9439
:10013000AC010C94C4010C9400008AE090E021E032
:1001400023B9E7EAF1E63197F1F700C00000019723
:100150000097B1F7C1E0C3B987EA91E60197F1F7DB
:1001600000C000000E94AA01F6CF8AE090E022E0E1
:1001700023B9E7EAF1E63197F1F700C000000197F3
:100180000097B1F7C2E0C3B987EA91E60197F1F7AA
:1001900000C000000E94AA01F6CF8AE090E024E0AF
:1001A00023B9E7EAF1E63197F1F700C000000197C3
:1001B0000097B1F7C4E0C3B987EA91E60197F1F778
:1001C00000C000000E94AA01F6CF8AE090E028E07B
:1001D00023B9E7EAF1E63197F1F700C00000019793
:1001E0000097B1F7C8E0C3B987EA91E60197F1F744
:1001F00000C000000E94AA01F6CF982789279827FF
:1002000008958DE990E0982789279827909307040F
:100210008093060485EB90E0982789279827909390
:100220000706809306068DEC90E09827892798278B
:10023000909307088093060885EE90E09827892719
:1002400098279093070A8093060A10920902109249
:100250000802E0910802F0910902EE0FFF1FE05042
:10026000FE4F808191819EBF8DBF0895E09108026D
:10027000F09109028DB79EB7EE0FFF1FE050FE4FC1
:10028000918380830F920FB6F8940F921F921124DE
:100290002F923F924F925F926F927F928F929F9296
:1002A000AF92BF92CF92DF92EF92FF920F931F9384
:1002B0002F933F934F935F936F937F938F939F936E
:1002C000AF93BF93CF93DF93EF93FF938DB79EB719
:1002D00001968D939D938091080290910902019659
:1002E000837099279093090280930802CD91DD9144
:1002F0002197CDBFDEBFFF91EF91DF91CF91BF91ED
:10030000AF919F918F917F916F915F914F913F91AD
:100310002F911F910F91FF90EF90DF90CF90BF90A2
:10032000AF909F908F907F906F905F904F903F9095
:100330002F901F900F900FBE0F90E0910802F09148
:100340000902EE0FFF1FE050FE4F808191819EBF9A
:100350008DBF08950C9436018FEF84B987B911B819
:1003600082B915B80E94010114E013B9C4EFD1E0BD
:1003700089EF90E00197F1F700C000000E94AA0108
:0C03800021972097A9F7F1CFF894FFCF48
:08038C00040404060408040A3D
:00000001FF
